{
  "contractName": "SolnSquareVerifier",
  "abi": [
    {
      "constant": true,
      "inputs": [
        {
          "name": "interfaceId",
          "type": "bytes4"
        }
      ],
      "name": "supportsInterface",
      "outputs": [
        {
          "name": "",
          "type": "bool"
        }
      ],
      "payable": false,
      "stateMutability": "view",
      "type": "function",
      "signature": "0x01ffc9a7"
    },
    {
      "constant": true,
      "inputs": [],
      "name": "name",
      "outputs": [
        {
          "name": "",
          "type": "string"
        }
      ],
      "payable": false,
      "stateMutability": "view",
      "type": "function",
      "signature": "0x06fdde03"
    },
    {
      "constant": true,
      "inputs": [
        {
          "name": "tokenId",
          "type": "uint256"
        }
      ],
      "name": "getApproved",
      "outputs": [
        {
          "name": "",
          "type": "address"
        }
      ],
      "payable": false,
      "stateMutability": "view",
      "type": "function",
      "signature": "0x081812fc"
    },
    {
      "constant": false,
      "inputs": [
        {
          "name": "to",
          "type": "address"
        },
        {
          "name": "tokenId",
          "type": "uint256"
        }
      ],
      "name": "approve",
      "outputs": [],
      "payable": false,
      "stateMutability": "nonpayable",
      "type": "function",
      "signature": "0x095ea7b3"
    },
    {
      "constant": false,
      "inputs": [
        {
          "name": "status",
          "type": "bool"
        }
      ],
      "name": "setPaused",
      "outputs": [],
      "payable": false,
      "stateMutability": "nonpayable",
      "type": "function",
      "signature": "0x16c38b3c"
    },
    {
      "constant": true,
      "inputs": [],
      "name": "totalSupply",
      "outputs": [
        {
          "name": "",
          "type": "uint256"
        }
      ],
      "payable": false,
      "stateMutability": "view",
      "type": "function",
      "signature": "0x18160ddd"
    },
    {
      "constant": false,
      "inputs": [
        {
          "name": "from",
          "type": "address"
        },
        {
          "name": "to",
          "type": "address"
        },
        {
          "name": "tokenId",
          "type": "uint256"
        }
      ],
      "name": "transferFrom",
      "outputs": [],
      "payable": false,
      "stateMutability": "nonpayable",
      "type": "function",
      "signature": "0x23b872dd"
    },
    {
      "constant": false,
      "inputs": [
        {
          "name": "_myid",
          "type": "bytes32"
        },
        {
          "name": "_result",
          "type": "string"
        }
      ],
      "name": "__callback",
      "outputs": [],
      "payable": false,
      "stateMutability": "nonpayable",
      "type": "function",
      "signature": "0x27dc297e"
    },
    {
      "constant": true,
      "inputs": [
        {
          "name": "owner",
          "type": "address"
        },
        {
          "name": "index",
          "type": "uint256"
        }
      ],
      "name": "tokenOfOwnerByIndex",
      "outputs": [
        {
          "name": "",
          "type": "uint256"
        }
      ],
      "payable": false,
      "stateMutability": "view",
      "type": "function",
      "signature": "0x2f745c59"
    },
    {
      "constant": false,
      "inputs": [
        {
          "name": "_myid",
          "type": "bytes32"
        },
        {
          "name": "_result",
          "type": "string"
        },
        {
          "name": "_proof",
          "type": "bytes"
        }
      ],
      "name": "__callback",
      "outputs": [],
      "payable": false,
      "stateMutability": "nonpayable",
      "type": "function",
      "signature": "0x38bbfa50"
    },
    {
      "constant": false,
      "inputs": [
        {
          "name": "from",
          "type": "address"
        },
        {
          "name": "to",
          "type": "address"
        },
        {
          "name": "tokenId",
          "type": "uint256"
        }
      ],
      "name": "safeTransferFrom",
      "outputs": [],
      "payable": false,
      "stateMutability": "nonpayable",
      "type": "function",
      "signature": "0x42842e0e"
    },
    {
      "constant": true,
      "inputs": [
        {
          "name": "index",
          "type": "uint256"
        }
      ],
      "name": "tokenByIndex",
      "outputs": [
        {
          "name": "",
          "type": "uint256"
        }
      ],
      "payable": false,
      "stateMutability": "view",
      "type": "function",
      "signature": "0x4f6ccce7"
    },
    {
      "constant": true,
      "inputs": [
        {
          "name": "tokenId",
          "type": "uint256"
        }
      ],
      "name": "ownerOf",
      "outputs": [
        {
          "name": "",
          "type": "address"
        }
      ],
      "payable": false,
      "stateMutability": "view",
      "type": "function",
      "signature": "0x6352211e"
    },
    {
      "constant": true,
      "inputs": [
        {
          "name": "owner",
          "type": "address"
        }
      ],
      "name": "balanceOf",
      "outputs": [
        {
          "name": "",
          "type": "uint256"
        }
      ],
      "payable": false,
      "stateMutability": "view",
      "type": "function",
      "signature": "0x70a08231"
    },
    {
      "constant": true,
      "inputs": [],
      "name": "owner",
      "outputs": [
        {
          "name": "",
          "type": "address"
        }
      ],
      "payable": false,
      "stateMutability": "view",
      "type": "function",
      "signature": "0x8da5cb5b"
    },
    {
      "constant": true,
      "inputs": [],
      "name": "isOwner",
      "outputs": [
        {
          "name": "",
          "type": "bool"
        }
      ],
      "payable": false,
      "stateMutability": "view",
      "type": "function",
      "signature": "0x8f32d59b"
    },
    {
      "constant": true,
      "inputs": [],
      "name": "symbol",
      "outputs": [
        {
          "name": "",
          "type": "string"
        }
      ],
      "payable": false,
      "stateMutability": "view",
      "type": "function",
      "signature": "0x95d89b41"
    },
    {
      "constant": false,
      "inputs": [
        {
          "name": "to",
          "type": "address"
        },
        {
          "name": "approved",
          "type": "bool"
        }
      ],
      "name": "setApprovalForAll",
      "outputs": [],
      "payable": false,
      "stateMutability": "nonpayable",
      "type": "function",
      "signature": "0xa22cb465"
    },
    {
      "constant": false,
      "inputs": [
        {
          "name": "from",
          "type": "address"
        },
        {
          "name": "to",
          "type": "address"
        },
        {
          "name": "tokenId",
          "type": "uint256"
        },
        {
          "name": "_data",
          "type": "bytes"
        }
      ],
      "name": "safeTransferFrom",
      "outputs": [],
      "payable": false,
      "stateMutability": "nonpayable",
      "type": "function",
      "signature": "0xb88d4fde"
    },
    {
      "constant": true,
      "inputs": [
        {
          "name": "tokenId",
          "type": "uint256"
        }
      ],
      "name": "tokenURI",
      "outputs": [
        {
          "name": "",
          "type": "string"
        }
      ],
      "payable": false,
      "stateMutability": "view",
      "type": "function",
      "signature": "0xc87b56dd"
    },
    {
      "constant": true,
      "inputs": [],
      "name": "baseTokenURI",
      "outputs": [
        {
          "name": "",
          "type": "string"
        }
      ],
      "payable": false,
      "stateMutability": "view",
      "type": "function",
      "signature": "0xd547cfb7"
    },
    {
      "constant": true,
      "inputs": [
        {
          "name": "owner",
          "type": "address"
        },
        {
          "name": "operator",
          "type": "address"
        }
      ],
      "name": "isApprovedForAll",
      "outputs": [
        {
          "name": "",
          "type": "bool"
        }
      ],
      "payable": false,
      "stateMutability": "view",
      "type": "function",
      "signature": "0xe985e9c5"
    },
    {
      "constant": false,
      "inputs": [
        {
          "name": "newOwner",
          "type": "address"
        }
      ],
      "name": "transferOwnership",
      "outputs": [],
      "payable": false,
      "stateMutability": "nonpayable",
      "type": "function",
      "signature": "0xf2fde38b"
    },
    {
      "inputs": [
        {
          "name": "verifierAddress",
          "type": "address"
        }
      ],
      "payable": false,
      "stateMutability": "nonpayable",
      "type": "constructor",
      "signature": "constructor"
    },
    {
      "anonymous": false,
      "inputs": [
        {
          "indexed": false,
          "name": "tokenId",
          "type": "uint256"
        },
        {
          "indexed": false,
          "name": "from",
          "type": "address"
        }
      ],
      "name": "SolutionAdded",
      "type": "event",
      "signature": "0x078793128cefb19aac38a33f9e5df39f67716907f6d747e8065545699e0b2b8d"
    },
    {
      "anonymous": false,
      "inputs": [
        {
          "indexed": true,
          "name": "from",
          "type": "address"
        },
        {
          "indexed": true,
          "name": "to",
          "type": "address"
        },
        {
          "indexed": true,
          "name": "tokenId",
          "type": "uint256"
        }
      ],
      "name": "Transfer",
      "type": "event",
      "signature": "0xddf252ad1be2c89b69c2b068fc378daa952ba7f163c4a11628f55a4df523b3ef"
    },
    {
      "anonymous": false,
      "inputs": [
        {
          "indexed": true,
          "name": "owner",
          "type": "address"
        },
        {
          "indexed": true,
          "name": "approved",
          "type": "address"
        },
        {
          "indexed": true,
          "name": "tokenId",
          "type": "uint256"
        }
      ],
      "name": "Approval",
      "type": "event",
      "signature": "0x8c5be1e5ebec7d5bd14f71427d1e84f3dd0314c0f7b2291e5b200ac8c7c3b925"
    },
    {
      "anonymous": false,
      "inputs": [
        {
          "indexed": true,
          "name": "owner",
          "type": "address"
        },
        {
          "indexed": true,
          "name": "operator",
          "type": "address"
        },
        {
          "indexed": false,
          "name": "approved",
          "type": "bool"
        }
      ],
      "name": "ApprovalForAll",
      "type": "event",
      "signature": "0x17307eab39ab6107e8899845ad3d59bd9653f200f220920489ca2b5937696c31"
    },
    {
      "anonymous": false,
      "inputs": [
        {
          "indexed": false,
          "name": "source",
          "type": "address"
        }
      ],
      "name": "Paused",
      "type": "event",
      "signature": "0x62e78cea01bee320cd4e420270b5ea74000d11b0c9f74754ebdbfc544b05a258"
    },
    {
      "anonymous": false,
      "inputs": [
        {
          "indexed": false,
          "name": "source",
          "type": "address"
        }
      ],
      "name": "Unpaused",
      "type": "event",
      "signature": "0x5db9ee0a495bf2e6ff9c91a7834c1ba4fdd244a5e8aa4e537bd38aeae4b073aa"
    },
    {
      "anonymous": false,
      "inputs": [
        {
          "indexed": true,
          "name": "oldOwner",
          "type": "address"
        },
        {
          "indexed": true,
          "name": "newOwner",
          "type": "address"
        }
      ],
      "name": "TransferredOwnership",
      "type": "event",
      "signature": "0x850b3df64837d7d518b45f5aa64d104652c3b80eb5b34a8e3d9eb666cb7cdea5"
    },
    {
      "constant": false,
      "inputs": [
        {
          "name": "a",
          "type": "uint256[2]"
        },
        {
          "name": "b",
          "type": "uint256[2][2]"
        },
        {
          "name": "c",
          "type": "uint256[2]"
        },
        {
          "name": "input",
          "type": "uint256[2]"
        },
        {
          "name": "source",
          "type": "address"
        },
        {
          "name": "tokenId",
          "type": "uint256"
        }
      ],
      "name": "addSolution",
      "outputs": [],
      "payable": false,
      "stateMutability": "nonpayable",
      "type": "function",
      "signature": "0x21517f01"
    },
    {
      "constant": false,
      "inputs": [
        {
          "name": "to",
          "type": "address"
        },
        {
          "name": "tokenId",
          "type": "uint256"
        }
      ],
      "name": "mint",
      "outputs": [
        {
          "name": "",
          "type": "bool"
        }
      ],
      "payable": false,
      "stateMutability": "nonpayable",
      "type": "function",
      "signature": "0x40c10f19"
    }
  ],
  "bytecode": "0x60806040523480156200001157600080fd5b50604051602080620020fa833981018060405260208110156200003357600080fd5b5051604080518082018252600881527f52454d546f6b656e00000000000000000000000000000000000000000000000060208281019190915282518084018452600381527f52454d000000000000000000000000000000000000000000000000000000000081830152835160608101909452603f808552929390929091620020bb9083013960008054600160a060020a0319163317808255604051600160a060020a039190911691907f850b3df64837d7d518b45f5aa64d104652c3b80eb5b34a8e3d9eb666cb7cdea5908290a36000805460a060020a60ff0219169055620001457f01ffc9a7000000000000000000000000000000000000000000000000000000006401000000006200024d810204565b620001797f80ac58cd000000000000000000000000000000000000000000000000000000006401000000006200024d810204565b620001ad7f780e9d63000000000000000000000000000000000000000000000000000000006401000000006200024d810204565b8251620001c290600f906020860190620002bd565b508151620001d8906010906020850190620002bd565b508051620001ee906011906020840190620002bd565b50620002237f5b5e139f000000000000000000000000000000000000000000000000000000006401000000006200024d810204565b505060138054600160a060020a031916600160a060020a0393909316929092179091555062000362565b7fffffffff0000000000000000000000000000000000000000000000000000000080821614156200027d57600080fd5b7fffffffff00000000000000000000000000000000000000000000000000000000166000908152600160208190526040909120805460ff19169091179055565b828054600181600116156101000203166002900490600052602060002090601f016020900481019282601f106200030057805160ff191683800117855562000330565b8280016001018555821562000330579182015b828111156200033057825182559160200191906001019062000313565b506200033e92915062000342565b5090565b6200035f91905b808211156200033e576000815560010162000349565b90565b611d4980620003726000396000f3fe608060405234801561001057600080fd5b5060043610610190576000357c01000000000000000000000000000000000000000000000000000000009004806342842e0e116100fb57806395d89b41116100b4578063c87b56dd1161008e578063c87b56dd1461081a578063d547cfb714610837578063e985e9c51461083f578063f2fde38b1461086d57610190565b806395d89b411461071e578063a22cb46514610726578063b88d4fde1461075457610190565b806342842e0e146106785780634f6ccce7146106ae5780636352211e146106cb57806370a08231146106e85780638da5cb5b1461070e5780638f32d59b1461071657610190565b806321517f011161014d57806321517f011461030257806323b872dd1461040957806327dc297e1461043f5780632f745c59146104ec57806338bbfa501461051857806340c10f191461064c57610190565b806301ffc9a71461019557806306fdde03146101e5578063081812fc14610262578063095ea7b31461029b57806316c38b3c146102c957806318160ddd146102e8575b600080fd5b6101d1600480360360208110156101ab57600080fd5b50357bffffffffffffffffffffffffffffffffffffffffffffffffffffffff1916610893565b604080519115158252519081900360200190f35b6101ed6108c7565b6040805160208082528351818301528351919283929083019185019080838360005b8381101561022757818101518382015260200161020f565b50505050905090810190601f1680156102545780820380516001836020036101000a031916815260200191505b509250505060405180910390f35b61027f6004803603602081101561027857600080fd5b503561095e565b60408051600160a060020a039092168252519081900360200190f35b6102c7600480360360408110156102b157600080fd5b50600160a060020a038135169060200135610979565b005b6102c7600480360360208110156102df57600080fd5b50351515610aaf565b6102f0610bad565b60408051918252519081900360200190f35b6102c7600480360361018081101561031957600080fd5b6040805180820182529183019291818301918390600290839083908082843760009201829052506040805180820190915293969594608081019493509150600290835b8282101561039a576040805180820182529080840286019060029083908390808284376000920191909152505050815260019091019060200161035c565b50506040805180820182529396959481810194935091506002908390839080828437600092019190915250506040805180820182529295949381810193925090600290839083908082843760009201919091525091945050600160a060020a0382351692505060200135610bb3565b6102c76004803603606081101561041f57600080fd5b50600160a060020a03813581169160208101359091169060400135610f89565b6102c76004803603604081101561045557600080fd5b8135919081019060408101602082013564010000000081111561047757600080fd5b82018360208201111561048957600080fd5b803590602001918460018302840111640100000000831117156104ab57600080fd5b91908080601f016020809104026020016040519081016040528093929190818152602001838380828437600092019190915250929550610fae945050505050565b6102f06004803603604081101561050257600080fd5b50600160a060020a038135169060200135610fce565b6102c76004803603606081101561052e57600080fd5b8135919081019060408101602082013564010000000081111561055057600080fd5b82018360208201111561056257600080fd5b8035906020019184600183028401116401000000008311171561058457600080fd5b91908080601f01602080910402602001604051908101604052809392919081815260200183838082843760009201919091525092959493602081019350359150506401000000008111156105d757600080fd5b8201836020820111156105e957600080fd5b8035906020019184600183028401116401000000008311171561060b57600080fd5b91908080601f016020809104026020016040519081016040528093929190818152602001838380828437600092019190915250929550610fa9945050505050565b6101d16004803603604081101561066257600080fd5b50600160a060020a03813516906020013561101b565b6102c76004803603606081101561068e57600080fd5b50600160a060020a0381358116916020810135909116906040013561114e565b6102f0600480360360208110156106c457600080fd5b5035611169565b61027f600480360360208110156106e157600080fd5b503561119e565b6102f0600480360360208110156106fe57600080fd5b5035600160a060020a03166111b9565b61027f6111e0565b6101d16111ef565b6101ed611200565b6102c76004803603604081101561073c57600080fd5b50600160a060020a0381351690602001351515611261565b6102c76004803603608081101561076a57600080fd5b600160a060020a038235811692602081013590911691604082013591908101906080810160608201356401000000008111156107a557600080fd5b8201836020820111156107b757600080fd5b803590602001918460018302840111640100000000831117156107d957600080fd5b91908080601f0160208091040260200160405190810160405280939291908181526020018383808284376000920191909152509295506112e5945050505050565b6101ed6004803603602081101561083057600080fd5b503561130d565b6101ed6113c2565b6101d16004803603604081101561085557600080fd5b50600160a060020a0381358116916020013516611423565b6102c76004803603602081101561088357600080fd5b5035600160a060020a0316611451565b7bffffffffffffffffffffffffffffffffffffffffffffffffffffffff191660009081526001602052604090205460ff1690565b600f8054604080516020601f60026000196101006001881615020190951694909404938401819004810282018101909252828152606093909290918301828280156109535780601f1061092857610100808354040283529160200191610953565b820191906000526020600020905b81548152906001019060200180831161093657829003601f168201915b505050505090505b90565b600090815260036020526040902054600160a060020a031690565b6109828161119e565b600160a060020a03838116911614156109cf5760405160e560020a62461bcd028152600401808060200182810382526022815260200180611b306022913960400191505060405180910390fd5b6109d76111e0565b600160a060020a031633600160a060020a03161480610a095750610a036109fd8261119e565b33611423565b15156001145b1515610a495760405160e560020a62461bcd02815260040180806020018281038252604c815260200180611b88604c913960600191505060405180910390fd5b600081815260036020526040808220805473ffffffffffffffffffffffffffffffffffffffff1916600160a060020a0386169081179091559051839233917f8c5be1e5ebec7d5bd14f71427d1e84f3dd0314c0f7b2291e5b200ac8c7c3b9259190a45050565b610ab76111ef565b1515610af75760405160e560020a62461bcd028152600401808060200182810382526031815260200180611c0d6031913960400191505060405180910390fd5b6000805474ff00000000000000000000000000000000000000001916740100000000000000000000000000000000000000008315159081029190911790915560011415610b76576040805133815290517f62e78cea01bee320cd4e420270b5ea74000d11b0c9f74754ebdbfc544b05a2589181900360200190a1610baa565b6040805133815290517f5db9ee0a495bf2e6ff9c91a7834c1ba4fdd244a5e8aa4e537bd38aeae4b073aa9181900360200190a15b50565b60085490565b601354604080517f621e9ec0000000000000000000000000000000000000000000000000000000008152600160a060020a039092169163621e9ec09189918991899189916004909101908190869080838360005b83811015610c1f578181015183820152602001610c07565b505050509050018460026000925b81841015610c6d5760208402830151604080838360005b83811015610c5c578181015183820152602001610c44565b505050509050019260010192610c2d565b9250505083600260200280838360005b83811015610c95578181015183820152602001610c7d565b5050505090500182600260200280838360005b83811015610cc0578181015183820152602001610ca8565b50505050905001945050505050602060405180830381600087803b158015610ce757600080fd5b505af1158015610cfb573d6000803e3d6000fd5b505050506040513d6020811015610d1157600080fd5b50511515610d69576040805160e560020a62461bcd02815260206004820152601960248201527f556e61626c6520746f2076657269667920536f6c7574696f6e00000000000000604482015290519081900360640190fd5b6000868686866040516020018085600260200280838360005b83811015610d9a578181015183820152602001610d82565b505050509050018460026000925b81841015610de85760208402830151604080838360005b83811015610dd7578181015183820152602001610dbf565b505050509050019260010192610da8565b9250505083600260200280838360005b83811015610e10578181015183820152602001610df8565b5050505090500182600260200280838360005b83811015610e3b578181015183820152602001610e23565b5050505090500194505050505060405160208183030381529060405280519060200120905060146000828152602001908152602001600020600101546000141515610ed0576040805160e560020a62461bcd02815260206004820152601760248201527f536f6c7574696f6e20616c726561647920657869737473000000000000000000604482015290519081900360640190fd5b6000818152601460205260409020805460ff19168155600181018390556002808201805473ffffffffffffffffffffffffffffffffffffffff1916600160a060020a038716179055610f2791600301908690611ab7565b506000828152601560209081526040918290208390558151848152600160a060020a0386169181019190915281517f078793128cefb19aac38a33f9e5df39f67716907f6d747e8065545699e0b2b8d929181900390910190a150505050505050565b610f9333826114a2565b1515610f9e57600080fd5b610fa9838383611501565b505050565b604080516000815260208101909152610fca9083908390610fa9565b5050565b6000610fd9836111b9565b8210610fe457600080fd5b600160a060020a038316600090815260066020526040902080548390811061100857fe5b9060005260206000200154905092915050565b60008181526015602052604081205480151561106b5760405160e560020a62461bcd028152600401808060200182810382526034815260200180611c626034913960400191505060405180910390fd5b60008181526014602052604090205460ff16156110bc5760405160e560020a62461bcd028152600401808060200182810382526024815260200180611c3e6024913960400191505060405180910390fd5b60008381526015602090815260408083205483526014909152902060020154600160a060020a0390811690851681146111295760405160e560020a62461bcd028152600401808060200182810382526039815260200180611bd46039913960400191505060405180910390fd5b506000908152601460205260409020805460ff19166001908117909155905092915050565b610fa9838383604051806020016040528060008152506112e5565b6000611173610bad565b821061117e57600080fd5b600880548390811061118c57fe5b90600052602060002001549050919050565b600090815260026020526040902054600160a060020a031690565b600160a060020a03811660009081526004602052604081206111da90611520565b92915050565b600054600160a060020a031690565b600054600160a060020a0316331490565b60108054604080516020601f60026000196101006001881615020190951694909404938401819004810282018101909252828152606093909290918301828280156109535780601f1061092857610100808354040283529160200191610953565b600160a060020a03821633141561127757600080fd5b336000818152600560209081526040808320600160a060020a03871680855290835292819020805460ff1916861515908117909155815190815290519293927f17307eab39ab6107e8899845ad3d59bd9653f200f220920489ca2b5937696c31929181900390910190a35050565b6112f0848484610f89565b6112fc84848484611524565b151561130757600080fd5b50505050565b6060611318826116a0565b151561132357600080fd5b60008281526012602090815260409182902080548351601f6002600019610100600186161502019093169290920491820184900484028101840190945280845290918301828280156113b65780601f1061138b576101008083540402835291602001916113b6565b820191906000526020600020905b81548152906001019060200180831161139957829003601f168201915b50505050509050919050565b60118054604080516020601f60026000196101006001881615020190951694909404938401819004810282018101909252828152606093909290918301828280156109535780601f1061092857610100808354040283529160200191610953565b600160a060020a03918216600090815260056020908152604080832093909416825291909152205460ff1690565b6114596111ef565b15156114995760405160e560020a62461bcd028152600401808060200182810382526031815260200180611c0d6031913960400191505060405180910390fd5b610baa816116bd565b6000806114ae8361119e565b905080600160a060020a031684600160a060020a031614806114e9575083600160a060020a03166114de8461095e565b600160a060020a0316145b806114f957506114f98185611423565b949350505050565b61150c8383836117ac565b61151683826118ff565b610fa982826119f6565b5490565b600061153884600160a060020a0316611a34565b1515611546575060016114f9565b6040517f150b7a020000000000000000000000000000000000000000000000000000000081523360048201818152600160a060020a03888116602485015260448401879052608060648501908152865160848601528651600095928a169463150b7a029490938c938b938b939260a4019060208501908083838e5b838110156115d95781810151838201526020016115c1565b50505050905090810190601f1680156116065780820380516001836020036101000a031916815260200191505b5095505050505050602060405180830381600087803b15801561162857600080fd5b505af115801561163c573d6000803e3d6000fd5b505050506040513d602081101561165257600080fd5b50517bffffffffffffffffffffffffffffffffffffffffffffffffffffffff19167f150b7a020000000000000000000000000000000000000000000000000000000014915050949350505050565b600090815260026020526040902054600160a060020a0316151590565b6116c681611a34565b156117055760405160e560020a62461bcd028152600401808060200182810382526035815260200180611cc16035913960400191505060405180910390fd5b600160a060020a038116151561174f5760405160e560020a62461bcd028152600401808060200182810382526036815260200180611b526036913960400191505060405180910390fd5b60008054600160a060020a0383811673ffffffffffffffffffffffffffffffffffffffff19831681178455604051919092169283917f850b3df64837d7d518b45f5aa64d104652c3b80eb5b34a8e3d9eb666cb7cdea59190a35050565b6117b58161119e565b600160a060020a038481169116146118015760405160e560020a62461bcd02815260040180806020018281038252602b815260200180611c96602b913960400191505060405180910390fd5b600160a060020a038216151561184b5760405160e560020a62461bcd028152600401808060200182810382526028815260200180611cf66028913960400191505060405180910390fd5b61185481611a3a565b600160a060020a038316600090815260046020526040902061187590611a82565b600160a060020a038216600090815260046020526040902061189690611a99565b600081815260026020526040808220805473ffffffffffffffffffffffffffffffffffffffff1916600160a060020a0386811691821790925591518493918716917fddf252ad1be2c89b69c2b068fc378daa952ba7f163c4a11628f55a4df523b3ef91a4505050565b600160a060020a03821660009081526006602052604081205461192990600163ffffffff611aa216565b6000838152600760205260409020549091508082146119c657600160a060020a038416600090815260066020526040812080548490811061196657fe5b90600052602060002001549050806006600087600160a060020a0316600160a060020a03168152602001908152602001600020838154811015156119a657fe5b600091825260208083209091019290925591825260079052604090208190555b600160a060020a03841660009081526006602052604090208054906119ef906000198301611af5565b5050505050565b600160a060020a0390911660009081526006602081815260408084208054868652600784529185208290559282526001810183559183529091200155565b3b151590565b600081815260036020526040902054600160a060020a031615610baa576000908152600360205260409020805473ffffffffffffffffffffffffffffffffffffffff19169055565b8054611a9590600163ffffffff611aa216565b9055565b80546001019055565b600082821115611ab157600080fd5b50900390565b8260028101928215611ae5579160200282015b82811115611ae5578251825591602001919060010190611aca565b50611af1929150611b15565b5090565b815481835581811115610fa957600083815260209020610fa99181019083015b61095b91905b80821115611af15760008155600101611b1b56fe43616e6e6f7420626520746865206f776e6572206f662074686520746f6b656e49644f776e6572736869702063616e206f6e6c79206265207472616e7366657272656420746f20616e2061637475616c20616464726573735468652073656e646572206973206e6f742074686520636f6e7472616374206f776e6572206f7220746865206f70657261746f72206973206e6f7420617070726f76656420666f7220616c6c5468652064657374696e6174696f6e206164647265737320646f6573206e6f74206d617463682074686520736f7572636520616464726573734f6e6c792074686520636f6e7472616374206f776e65722063616e206361727279206f7574207468697320616374696f6e54686520536f6c7574696f6e2068617320616c7265616479206265656e206d696e74656454686520736f6c7574696f6e2077697468207468652070726f766964656420746f6b656e496420776173206e6f7420666f756e6443616e6e6f74207472616e73666572206120746f6b656e207468617420796f7520646f206e6f74206f776e4f776e6572736869702063616e6e6f74206265207472616e7366657272656420746f206120636f6e74726163742061646472657373596f752063616e207472616e7366657220746f206f6e6c7920612076616c69642061646472657373a165627a7a72305820ab141a9b38a7868cccbddb3673c12a9a3830db12c81b44d3db7e1563f6837cb1002968747470733a2f2f73332d75732d776573742d322e616d617a6f6e6177732e636f6d2f756461636974792d626c6f636b636861696e2f63617073746f6e652f",
  "source": "pragma solidity >=0.4.21 <0.6.0;\n\nimport \"./ERC721Mintable.sol\";\nimport \"./SquareVerifier.sol\";\n\n// TODO define a contract call to the zokrates generated solidity contract <Verifier> or <renamedVerifier>\n// TODO define another contract named SolnSquareVerifier that inherits from your ERC721Mintable class\ncontract SolnSquareVerifier is REMToken {\n\n    SquareVerifier private verifier;\n\n    constructor(address verifierAddress) public {\n        verifier = SquareVerifier(verifierAddress);\n    }\n\n    // TODO define a solutions struct that can hold an tokenId & an address\n    struct Solution {\n        bool minted;\n        uint256 tokenId;\n        address from;\n        uint256[2] input;\n    }\n\n    // TODO define an array of the above struct\n    mapping(bytes32 => Solution) solutions;\n\n    // TODO define a mapping to store unique solutions submitted\n    mapping(uint256 => bytes32) private submittedSolutions;\n\n\n\n    // TODO Create an event to emit when a solution is added\n    event SolutionAdded(uint256 tokenId, address from);\n\n\n\n    // TODO Create a function to add the solutions to the array and emit the event\n    function addSolution(uint[2] memory a,\n            uint[2][2] memory b,\n            uint[2] memory c,\n            uint[2] memory input,\n            address source,\n            uint256 tokenId) public {\n        require(verifier.verifyTx(a, b, c, input), \"Unable to verify Solution\");\n\n        // Create a unique key for tracking solutions\n        bytes32 key = keccak256(abi.encodePacked(a, b, c, input));\n\n        // Ensure the solution does not already exist\n        require(solutions[key].tokenId == 0, \"Solution already exists\");\n\n        solutions[key].minted = false;\n        solutions[key].tokenId = tokenId;\n        solutions[key].from = source;\n        solutions[key].input = input;\n        \n        submittedSolutions[tokenId] = key;\n\n        emit SolutionAdded(tokenId, source);\n    }\n\n\n\n    // TODO Create a function to mint new NFT only after the solution has been verified\n    //  - make sure the solution is unique (has not been used before)\n    //  - make sure you handle metadata as well as tokenSuplly\n    function mint(address to, uint256 tokenId) public returns (bool) {\n        bytes32 key = submittedSolutions[tokenId];\n\n        // Ensure the key really exists\n        require(key != bytes32(0), \"The solution with the provided tokenId was not found\");\n\n        // Ensure the token has not been minted before\n        require(!solutions[key].minted, \"The Solution has already been minted\");\n\n        // Esnure the owner is the one minting the Solution\n        address owner = solutions[submittedSolutions[tokenId]].from;\n        require(owner == to, \"The destination address does not match the source address\");\n\n        solutions[key].minted = true;\n        return true;\n    }\n}\n\n\n\n\n\n\n\n\n\n\n\n\n\n\n\n  \n\n\n\n\n\n\n\n\n\n\n\n\n\n\n\n\n\n\n\n\n\n\n\n\n\n\n",
  "sourcePath": "/Users/badeyemi/dev/courses/BlockChain Developer Nanodegree/Real-Estate-Marketplace-Blockchain/eth-contracts/contracts/SolnSquareVerifier.sol",
  "compiler": {
    "name": "solc",
    "version": "0.5.5+commit.47a71e8f.Emscripten.clang"
  },
  "schemaVersion": "3.0.1",
  "updatedAt": "2022-04-07T22:52:15.456Z",
  "devdoc": {
    "methods": {
      "isApprovedForAll(address,address)": {
        "details": "Tells whether an operator is approved by a given owner",
        "params": {
          "operator": "operator address which you want to query the approval of",
          "owner": "owner address which you want to query the approval of"
        },
        "return": "bool whether the given operator is approved by the given owner"
      },
      "setApprovalForAll(address,bool)": {
        "details": "Sets or unsets the approval of a given operator An operator is allowed to transfer all tokens of the sender on their behalf",
        "params": {
          "approved": "representing the status of the approval to be set",
          "to": "operator address to set the approval"
        }
      },
      "supportsInterface(bytes4)": {
        "details": "implement supportsInterface(bytes4) using a lookup table"
      },
      "tokenByIndex(uint256)": {
        "details": "Gets the token ID at a given index of all the tokens in this contract Reverts if the index is greater or equal to the total number of tokens",
        "params": {
          "index": "uint256 representing the index to be accessed of the tokens list"
        },
        "return": "uint256 token ID at the given index of the tokens list"
      },
      "tokenOfOwnerByIndex(address,uint256)": {
        "details": "Gets the token ID at a given index of the tokens list of the requested owner",
        "params": {
          "index": "uint256 representing the index to be accessed of the requested tokens list",
          "owner": "address owning the tokens list to be accessed"
        },
        "return": "uint256 token ID at the given index of the tokens list owned by the requested address"
      },
      "totalSupply()": {
        "details": "Gets the total amount of tokens stored by the contract",
        "return": "uint256 representing the total amount of tokens"
      }
    }
  },
  "userdoc": {
    "methods": {}
  }
}